:020000040800F2
:1000000000000120AD300008790F00087B0F0008C8
:100010007D0F00087F0F0008810F0008000000001E
:10002000000000000000000000000000830F000836
:10003000850F000800000000870F0008890F0008E6
:10004000FD300008FD300008FD300008FD300008DC
:10005000FD300008FD300008FD300008FD300008CC
:10006000FD300008FD300008FD300008FD300008BC
:10007000FD300008FD300008910F0008A10F0008B6
:10008000FD300008FD300008FD300008FD3000089C
:10009000FD300008FD300008FD300008FD3000088C
:1000A000FD300008FD300008FD300008FD3000087C
:1000B000FD3000080000000000000000FD300008D6
:1000C000FD3000080000000000000000FD300008C6
:1000D00000000000CD0F0008FD3000080000000007
:1000E000FD300008FD3000080000000000000000A6
:1000F0000000000000000000000000000000000000
:10010000000000000000000000000000FD300008BA
:100110000000000000000000FD300008FD30000875
:10012000FD300008FD300008FD300008FD300008FB
:10013000FD3000080000000000000000000000008A
:10014000FD300008FD300008FD300008FD300008DB
:10015000FD300008FD300008FD300008FD300008CB
:10016000FD300008FD300008FD30000800000000F0
:10017000FD300008FD300008000000000000000015
:10018000FD300008FD300008FD30000800000000D0
:1001900010B5054C237833B9044B13B10448AFF3C1
:1001A00000800123237010BD10000020000000001B
:1001B0007431000808B5034B1BB103490348AFF382
:1001C000008008BD00000000140000207431000809
:1001D00053B94AB9002908BF00281CBF4FF0FF31AE
:1001E0004FF0FF3000F074B9ADF1080C6DE904CEAA
:1001F00000F006F8DDF804E0DDE9022304B0704702
:100200002DE9F047089D04468E46002B4DD18A42C9
:10021000944669D9B2FA82F252B101FA02F3C2F1FC
:10022000200120FA01F10CFA02FC41EA030E94408D
:100230004FEA1C48210CBEFBF8F61FFA8CF708FBAE
:1002400016E341EA034306FB07F199420AD91CEB86
:10025000030306F1FF3080F01F81994240F21C81B8
:10026000023E63445B1AA4B2B3FBF8F008FB103300
:1002700044EA034400FB07F7A7420AD91CEB040435
:1002800000F1FF3380F00A81A74240F20781644405
:10029000023840EA0640E41B00261DB1D44000238A
:1002A000C5E900433146BDE8F0878B4209D9002DEE
:1002B00000F0EF800026C5E9000130463146BDE878
:1002C000F087B3FA83F6002E4AD18B4202D38242E2
:1002D00000F2F980841A61EB030301209E46002D91
:1002E000E0D0C5E9004EDDE702B9FFDEB2FA82F2E6
:1002F000002A40F09280A1EB0C014FEA1C471FFA44
:100300008CFE0126200CB1FBF7F307FB131140EA2A
:1003100001410EFB03F0884208D91CEB010103F1F7
:10032000FF3802D2884200F2CB804346091AA4B2B9
:10033000B1FBF7F007FB101144EA01440EFB00FE8D
:10034000A64508D91CEB040400F1FF3102D2A645F2
:1003500000F2BB800846A4EB0E0440EA03409CE791
:10036000C6F12007B34022FA07FC4CEA030C20FA3E
:1003700007F401FA06F31C43F9404FEA1C4900FA5E
:1003800006F3B1FBF9F8200C1FFA8CFE09FB1811DB
:1003900040EA014108FB0EF0884202FA06F20BD94E
:1003A0001CEB010108F1FF3A80F08880884240F29E
:1003B0008580A8F102086144091AA4B2B1FBF9F0E2
:1003C00009FB101144EA014100FB0EFE8E4508D9DD
:1003D0001CEB010100F1FF346CD28E456AD9023862
:1003E000614440EA0840A0FB0294A1EB0E01A14247
:1003F000C846A64656D353D05DB1B3EB080261EBB5
:100400000E0101FA07F722FA06F3F1401F43C5E98E
:10041000007100263146BDE8F087C2F12003D840C4
:100420000CFA02FC21FA03F3914001434FEA1C4706
:100430001FFA8CFEB3FBF7F007FB10360B0C43EAF8
:10044000064300FB0EF69E4204FA02F408D91CEBA8
:10045000030300F1FF382FD29E422DD902386344A6
:100460009B1B89B2B3FBF7F607FB163341EA034146
:1004700006FB0EF38B4208D91CEB010106F1FF3895
:1004800016D28B4214D9023E6144C91A46EA00468C
:1004900038E72E46284605E70646E3E61846F8E61E
:1004A0004B45A9D2B9EB020864EB0C0E0138A3E767
:1004B0004646EAE7204694E74046D1E7D0467BE748
:1004C000023B614432E7304609E76444023842E7C0
:1004D000704700BF72B6FEE700B5ADB04422002100
:1004E0001BA802F03FFE0021169117911891199157
:1004F0001A91542201A802F035FE02231B934FF4F7
:1005000080721E9210221F92259326930122279219
:100510000A222892072229922A932B931BA800F0E3
:1005200019FFE8B90F231693032317930023189399
:1005300019931A93042116A801F04CFA90B941239B
:100540000193002309930C9301A801F0D1FB58B942
:100550004FF4007001F09CFF40B92DB05DF804FB32
:10056000FFF7B8FFFFF7B6FFFFF7B4FFFFF7B2FFE3
:1005700000B583B000F02AFEFFF7AEFF00F050FB9D
:1005800002F072FD00F098FB00F068FC00F0F6FB52
:100590000223009300231A461946184600F0F8F883
:1005A000012240214FF0904001F0DEFD0022402169
:1005B0004FF0904001F0D8FD4FF40072024903481B
:1005C00002F004FDFEE700BF2C00002024080020FC
:1005D0000369C268934204D88068801A0344581E95
:1005E00070479B1A581E70472DE9F8430446884609
:1005F0001646C5688768A7EB0509914507D9406885
:10060000284402F0A1FD3544E560BDE8F883406868
:100610004A46284402F098FDED1B35442A4608EB73
:100620000901606802F090FDE560EEE72DE9F8430E
:10063000064688461746C5684FF0000918E0641B57
:10064000621EB3685C1B944228BF1446BC4228BF9C
:100650003C46706822464146284402F075FDA1449C
:10066000A0443F1B2544B368AB4209D0F5604FB1AD
:100670003469A542E3D3B268641B1444621EE0E708
:100680000025F3E74846BDE8F8830000124B03223B
:100690001A615A6111499961114ADA614FF4806215
:1006A0001A6200229A625A62DA6219660D49596624
:1006B000102199661A67DA665A670B4A1068C3F800
:1006C00007000A4A92E8030018609980090C9971A2
:1006D00020229A71704700BF2C0200209031000840
:1006E000E4020020D40200209C310008A031000860
:1006F000F8B50F461646184B451C05EB450503EBB0
:10070000C50500EB400003EBC000C46A012C11D00A
:10071000022C1CD014B100242046F8BD2846FFF757
:1007200057FF8642F8D8324639462846FFF75CFF25
:100730003446F1E72846FFF74BFF3446864228BF90
:100740000446224639462846FFF74EFFE4E728468E
:10075000FFF76CFF0446DFE72C020020F8B50446E3
:100760000D461646094B1B786BB1EFF311874FF01E
:10077000200181F31188324629462046FFF7B8FF51
:1007800087F31188F8BDFFF781FFEEE72C02002008
:100790002DE9F0410446884617461E46184B1B7843
:1007A0003BB3174B1B69A34226D9EFF311834FF0DC
:1007B000200181F3118884B1114D601C00EB4002CF
:1007C00045F8328005EBC200476004EB440205EBBC
:1007D000C202166200219162516204EB440408488F
:1007E00000EBC404069AE26283F311880020BDE89E
:1007F000F081FFF74BFFD4E74FF0FF30F7E700BF82
:100800002C02002010B504468268531C40688342C5
:1008100005D820688154A360E3680133E360A268CF
:1008200063689A4200D010BD21682069FFF796FFE7
:10083000A368984203D04FF0FF33E360F3E700234F
:10084000A360F0E72DE9F84F81460F4615461E4696
:10085000DDF828A00B9A0B464FF0010803E0B3FB2C
:10086000F5F308F10108AB42F9D2B04500D2B04629
:1008700012F0010B18D1BAF1000F15D012F0020FCF
:1008800002D0BEB1202400E02024BAF1000F0BD02A
:10089000C24509D90AF1FF3A21464846FFF7B2FF9F
:1008A000D9F80C30002BF0DAD9F80C30002B25DB0E
:1008B000012404E03024E8E7013E05FB04F4012EA6
:1008C000FAD8B7FBF4F39D42F7D900E01C46B7FB1A
:1008D000F4F304FB1377124AD15C4846FFF792FF0A
:1008E000D9F80C30002B03DBB4FBF5F3AC42EDD2AE
:1008F000BBF1000F02D0BAF1000F01D1BDE8F88FB3
:10090000BAF1000FFAD0C245F8D90AF1FF3A202116
:100910004846FFF777FFD9F80C30002BF0DAEDE707
:10092000A83100082DE9F04782B0074688461546F1
:1009300099460A9EDDF82CA081EAE17CACEBE17CD3
:10094000012402E09CFBF5FC01346545FADD4C45D1
:1009500000D24C4636B1B8F1000F02DB1AF0040F9A
:1009600000D0013E1AF0020F02D0B9F1000F03D0FF
:100970001AF0010F00D1AEB9FB68002B0FDBB8F104
:10098000000F1CDB1AF0040F20D1FB68002B06DBE4
:100990000AF00303022B1ED0FB68002B2DDA02B0F5
:1009A000BDE8F087002EE7D0A642E5D9013E202120
:1009B0003846FFF727FFFB68002BF3DADCE7C8F1C6
:1009C00000082D213846FFF71DFFDEE72B213846B2
:1009D000FFF718FFD9E7B9F1000FDDD1002EDBD00A
:1009E000002ED9D0A642D7D9013E30213846FFF794
:1009F00009FFFB68002BF3DACEE7CDF804A00096E0
:100A00004B462A4641463846FFF71CFFC7E7000021
:100A1000F0B599B006460C46154603AB1393402338
:100A2000149300231593179016938AE00020012257
:100A300011E040F0010001340CE040F0020001340C
:100A400008E040F00400013404E040F00800013404
:100A500000E0002212B32378233B0D2BF9D801A12B
:100A600051F823F04B0A0008530A0008530A000803
:100A7000530A0008530A0008530A0008530A0008E2
:100A8000530A0008430A0008530A0008330A000802
:100A9000530A0008530A00083B0A00082378A3F110
:100AA0003001C9B2092907D8013402EB820203EBF5
:100AB0004203A3F13002F1E72E2B02D0002321786C
:100AC00013E00134002305E0013403EB830301EB61
:100AD0004303303B2178A1F1300C5FFA8CFCBCF170
:100AE000090FF1D9EBE714F8011F6C29FBD0682935
:100AF000F9D025296DD020D378291ED858291CD3A8
:100B00005839202919D8DFE801F03D1818181818AD
:100B1000181818181811271818181818181818184D
:100B2000181857181848183218183D002B681A1D45
:100B30002A60197813A8FFF765FE0134169B002B75
:100B40004CDB14F8011B002948D025293FF46EAF77
:100B500013A8FFF757FEF1E729680F1D2F600968FA
:100B6000019000920A2213A8FFF7DCFEE5E729684E
:100B70000F1D2F600968019000920A2213A8FFF749
:100B800061FEDAE729680F1D2F6009680190009265
:100B9000102213A8FFF756FECFE72B681A1D2A6014
:100BA0001F6817F8011B0029C7D013A8FFF72AFEFA
:100BB000169B002BF5DAC0E72B681A1D2A6019680E
:100BC0000023019308230093102213A8FFF73AFE95
:100BD000B3E7252113A8FFF715FEAEE7169B002B00
:100BE00005DD159A32B9159A169B1344169316987B
:100BF00019B0F0BD03A93046FFF7B0FDF3E700BF21
:100C00000EB400B582B003AB53F8041B019301AAE4
:100C1000FFF7FEFE02B05DF804EB03B07047000082
:100C200010B588B0002403940494059406940794A6
:100C30001F4BDA6C42F00402DA64DA6C02F0040250
:100C40000092009ADA6C42F00102DA64DA6C02F087
:100C500001020192019ADA6C42F00202DA64DB6C62
:100C600003F002030293029B2246E0214FF09040E2
:100C700001F07AFA182303930494059403A94FF022
:100C8000904001F0A9F9E023039301230493059414
:100C9000069403A94FF0904001F09EF903230393BB
:100CA0000494059403A9034801F096F908B010BD17
:100CB000001002400004004808B51248124B0360BF
:100CC000124B4360002383600122C26003614361D1
:100CD0008361C361036200F099F950B900210948AA
:100CE00000F0F2F940B90021064800F01BFA30B9D3
:100CF00008BDFFF7EFFBF1E7FFF7ECFBF3E7FFF7CA
:100D0000E9FBF5E7E406002000540040EC9C90105D
:100D100010B588B0002303930493059306930793BB
:100D20000268134B9A4201D008B010BD114CE36C1D
:100D300043F00203E364E36C03F002030193019BBD
:100D4000C0230393122304930123059303230693E3
:100D50000423079303A9084801F03EF9A36D43F467
:100D60000013A365A36D03F400130293029BDBE75A
:100D700000540040001002400004004808B510482C
:100D8000104B03604FF482734360002383604FF481
:100D90004072C260036143614FF480228261C3618B
:100DA0000362436283620722C262036308234363D0
:100DB00001F022FC00B908BDFFF78CFBFBE700BF88
:100DC000300700200030014070B588B00023039345
:100DD000049305930693079302681E4B9A4201D031
:100DE00008B070BD03F560431A6E42F480521A6673
:100DF0001A6E02F480520092009ADA6C42F00102FC
:100E0000DA64DA6C02F001020192019ADA6C42F0C3
:100E10000202DA64DB6C03F002030293029B48F2E5
:100E200002030393022604960325069505240794DE
:100E300003A94FF0904001F0CFF8302303930496BC
:100E4000002305930695079403A9034801F0C4F80D
:100E5000C6E700BF003001400004004808B50B4859
:100E60000B4B03604FF41653436000238360C36051
:100E700003610C2242618361C3610362436202F039
:100E800032F800B908BDFFF725FBFBE72408002076
:100E90000038014030B589B00023039304930593D3
:100EA0000693079302682F4B9A4201D009B030BDD8
:100EB000044603F558431A6E42F480421A661A6ECD
:100EC00002F480420192019ADA6C42F00102DA6483
:100ED000DB6C03F001030293029B4FF4C0630393A6
:100EE00002250495032306930723079303A94FF0D4
:100EF000904001F071F81C481C4B036045600023D2
:100F00008360C3608022026143618361C3610362C5
:100F100001F048F900BB144B23679C621448154B41
:100F2000036002234360102383600023C360802298
:100F3000026143618361C361036201F033F970B9F7
:100F40000B4BE3669C6200221146252001F0FAFA61
:100F5000252001F02FFBA9E7FFF7BCFADBE7FFF73D
:100F6000B9FAEDE70038014094070020580002402C
:100F7000DC07002044000240FEE7FEE7FEE7FEE754
:100F8000FEE770477047704708B500F02FF908BDBD
:100F900008B5024801F012FA08BD00BFDC070020C6
:100FA00010B5074801F00AFA064C21460020FFF769
:100FB00027FE4FF400722146034802F007F810BDE7
:100FC000940700202C0000202408002008B50248C7
:100FD00001F0E8FB08BD00BF2408002082B00A4BE6
:100FE0001A6E42F001021A661A6E02F001020092B5
:100FF000009A9A6D42F080529A659B6D03F080537F
:101000000193019B02B0704700100240002859D0A4
:1010100010B5044690F84130002B43D0242384F8C7
:1010200041302268136823F001031360636822686B
:1010300023F0706313612268936823F40043936084
:10104000E368012B33D0A368226843F40443936020
:10105000E368022B31D02268536843F0007343F4F5
:10106000004353602268D36823F40043D3602369AC
:1010700062691343A169226843EA0123D360E369EB
:10108000216A22680B4313602268136843F001034E
:10109000136000206064202384F84130206384F8CA
:1010A000420010BD80F84030FFF732FEB6E7A3687B
:1010B000226843F400439360CAE723684FF4006258
:1010C0005A60C8E70120704790F84130DBB2202B0E
:1010D00024D190F84030012B22D0012380F84030F9
:1010E000242380F841300268136823F00103136061
:1010F0000268136823F4805313600268136819436D
:1011000011600268136843F001031360202380F824
:101110004130002380F84030184670470220704765
:101120000220704790F84130DBB2202B22D190F89A
:101130004030012B20D0012380F84030242380F858
:1011400041300268136823F00103136002681368DA
:1011500023F4706343EA012111600268136843F0CD
:1011600001031360202380F84130002380F84030D1
:10117000184670470220704702207047104B1B78BA
:101180000BB90120704710B504464FF47A70B0FBDC
:10119000F3F30C4A1068B0FBF3F001F019FA68B9E8
:1011A0000F2C01D901200AE0002221464FF0FF3028
:1011B00001F0C8F9044B1C60002000E0012010BDC4
:1011C00000000020080000200400002010B50320CB
:1011D00001F0A6F90020FFF7D1FF10B1012420464D
:1011E00010BD0446FFF7FAFEF9E70000034B1B7839
:1011F000034A11680B441360704700BF00000020D1
:10120000A8080020014B1868704700BFA8080020FC
:1012100030B583B00446204B9B6D13F0805F0BD03C
:1012200001F02EF9B0F5007F17D0802C1FD82DD0FB
:10123000702C2DD000211BE0174DAB6D43F0805377
:10124000AB65AB6D03F080530193019B01F018F97E
:10125000AB6D23F08053AB65E4E7802C03D9A02C61
:1012600003D9022104E0002102E0012100E0032172
:101270000A4A136823F007030B431360136803F053
:1012800007038B4206D1002003B030BD0221EFE7F7
:101290000121EDE70120F7E70010024000200240A5
:1012A000284A9368D26802F0030213F00C030AD0B4
:1012B0000C2B06D0042B1FD0082B20D00020024678
:1012C00010E0012AF6D11F4A126812F0080F0CD163
:1012D0001C4AD2F89420C2F303221B4951F8222061
:1012E00043B100200C2B0DD07047164A1268C2F390
:1012F0000312F2E71046F5E714480022F2E714481B
:101300000022EFE70F4BDB6803F00303022B16D03C
:10131000032B00D10E4A0B49C868C0F30210431CCE
:10132000C868C0F3062002FB00F0B0FBF3F0CB6806
:10133000C3F3416301335B00B0FBF3F0D4E7034A2E
:10134000E9E700BF00100240D03100080024F4009B
:1013500000127A00002800F02783F0B583B004461D
:10136000964B9D6805F00C05DE6806F003060368E1
:1013700013F0100F5AD0E5B10C2D18D0A369002B33
:1013800000F0BB808D4A136843F001031360FFF740
:1013900039FF0746894B1B6813F0020F40F09A8013
:1013A000FFF730FFC01B0228F4D9032007E3012E0A
:1013B000E4D1824B1B6813F0020F03D0A369002B0A
:1013C00000F0F482206A7D4B1B6813F0080F5BD09D
:1013D0007A4B1B6803F0F00398425CD8774B1A688D
:1013E00042F008021A601A6822F0F002216A0A43E9
:1013F0001A605A6822F47F42E16942EA01225A6087
:10140000002D60D0FFF74CFF6C4B9B68C3F30313B8
:101410006B4AD35C03F01F03D8406A4B18606A4BD9
:101420001868FFF7ABFE002840F0C982236813F06C
:10143000010F00F08180082D75D00C2D71D06368EC
:10144000B3F5803F00F09780B3F5A02F00F09980AE
:101450005A4B1A6822F480321A601A6822F48022E9
:101460001A606368002B00F09980FFF7CBFE0746F7
:10147000524B1B6813F4003F5ED1FFF7C3FEC01B45
:101480006428F5D903209AE24C4BD3F894301B0919
:1014900003F0F003A0E7FFF7BBFE002840F08882CE
:1014A000464B1A6842F008021A601A6822F0F002ED
:1014B000216A0A431A605A6822F47F42E16942EACB
:1014C00001225A609EE7206AFFF7A2FE002899D009
:1014D000012074E2394B1A6842F008021A601A6857
:1014E00022F0F002216A0A431A605A6822F47F420D
:1014F000E16942EA01225A6098E7304A136823F012
:1015000001031360FFF77EFE07462C4B1B6813F0A8
:10151000020F8BD0FFF776FEC01B0228F5D90320FF
:101520004DE2032E8BD1254B1B6813F4003F03D0F3
:101530006368002B00F03E82236813F0020F58D03E
:10154000042D45D00C2D41D0E368002B77D01B4AE9
:10155000136843F480731360FFF754FE0646174B7D
:101560001B6813F4806F61D1FFF74CFE801B0228CB
:10157000F5D9032023E2114A136843F48033136042
:101580006FE703F18043A3F53C331A6842F48022ED
:101590001A601A6842F480321A6062E7FFF732FE7E
:1015A0000746064B1B6813F4003FC5D0FFF72AFE21
:1015B000C01B6428F5D9032001E200BF00100240DF
:1015C000B83100080800002004000020022EBBD122
:1015D000AC4B1B6813F4806F03D0E368002B00F062
:1015E000EB81A84A536823F0F853216943EA016369
:1015F0005360236813F0080F4CD063699BB3A14A72
:10160000D2F8943043F00103C2F89430FFF7FAFDAA
:1016100006469C4BD3F8943013F0020F3AD1FFF7F3
:10162000F1FD801B0228F4D90320C8E1954A5368D4
:1016300023F0F853216943EA01635360D9E7914AE3
:10164000136823F480731360FFF7DCFD06468D4BAF
:101650001B6813F4806FCCD0FFF7D4FD801B0228E9
:10166000F5D90320ABE1874AD2F8943023F0010387
:10167000C2F89430FFF7C6FD0646824BD3F894308B
:1016800013F0020F06D0FFF7BDFD801B0228F4D92E
:10169000032094E1236813F0040F7AD0794B9B6DFB
:1016A00013F0805F36D1774B9A6D42F080529A6585
:1016B0009B6D03F080530193019B0126724B1B68C5
:1016C00013F4807F28D0A368012B39D0052B3FD09D
:1016D0006C4BD3F8902022F00102C3F89020D3F88D
:1016E000902022F00402C3F89020A368002B3DD084
:1016F000FFF788FD0746634BD3F8903013F0020FD5
:1017000046D1FFF77FFDC01B41F288339842F2D9E2
:10171000032054E10026D1E75B4A136843F4807349
:101720001360FFF76FFD0746574B1B6813F4807F6C
:10173000C9D1FFF767FDC01B0228F5D903203EE1A0
:10174000504AD2F8903043F00103C2F89030CCE711
:101750004C4BD3F8902042F00402C3F89020D3F809
:10176000902042F00102C3F89020BEE7FFF74AFD47
:101770000746444BD3F8903013F0020F08D0FFF720
:1017800041FDC01B41F288339842F2D9032016E193
:10179000E6B9236813F0200F35D0636AE3B1394A04
:1017A000D2F8983043F00103C2F89830FFF72AFDD1
:1017B0000646344BD3F8983013F0020F23D1FFF7CD
:1017C00021FD801B0228F4D90320F8E02D4A936DF7
:1017D00023F080539365DCE72A4AD2F8983023F04F
:1017E0000103C2F89830FFF70DFD0646254BD3F8EC
:1017F000983013F0020F06D0FFF704FD801B02287B
:10180000F4D90320DBE0A36A002B00F0D780022B81
:1018100027D00C2D00F0D7801A4B1A6822F0807266
:101820001A601B6813F0006F04D1164AD36823F0C6
:101830000303D360134AD36823F0887323F48033FF
:10184000D360FFF7DFFC04460E4B1B6813F0007FEC
:1018500000F0A880FFF7D6FC001B0228F4D9032073
:10186000ADE0084BDB6803F00301E26A91420DD062
:101870000C2D00F0A680034B1B6813F0806F2FD057
:1018800001209CE0001002400070004003F0700254
:10189000216B0139B2EB011FEAD103F4FE42616B07
:1018A000B2EB012FE4D103F07842A16BB2EBC16F30
:1018B000DED103F4C001E26B5208013AB1EB425FA2
:1018C000D6D103F0C063226C5208013AB3EB426FE9
:1018D000CED13E4B1B6813F0007F49D000206EE054
:1018E0003A4A136823F080731360FFF78BFC0546B8
:1018F000364B1B6813F0007F06D0FFF783FC401BBC
:101900000228F5D903205AE0304AD36830491940FB
:10191000E36A206B013843EA0013606B43EA00235B
:10192000E06B4008013843EA4053206C400801381E
:1019300043EA4063A06B43EAC0630B43D360136880
:1019400043F080731360D36843F08073D360FFF774
:1019500059FC04461D4B1B6813F0007F06D1FFF7AE
:1019600051FC001B0228F5D9032028E0002026E0C6
:10197000164B1A6842F080721A60DA6842F0807280
:10198000DA60FFF73FFC0446104B1B6813F0007F42
:1019900006D1FFF737FC031B022BF5D903200EE01D
:1019A00000200CE000200AE001207047012006E042
:1019B000012004E0012002E0012000E0002003B04B
:1019C000F0BD0120FBE70120F9E700BF0010024055
:1019D0008C809D01002800F0988070B50C4605466B
:1019E0004E4B1B6803F007038B420BD24B4A136824
:1019F00023F007030B431360136803F007038B42C4
:101A000040F085802B6813F0010F39D06B68032BF1
:101A100009D0022B26D063BB414A126812F0020F94
:101A200006D1012070E03E4A126812F0007F70D0AB
:101A30003B498A6822F0030213438B60FFF7E2FB05
:101A40000646374B9B6803F00C036A68B3EB820FC2
:101A500016D0FFF7D7FB801B41F288339842F0D9AC
:101A6000032051E02E4A126812F4003FE0D1012019
:101A70004AE02B4A126812F4806FD9D1012043E06A
:101A80002B6813F0020F06D0254A936823F0F00369
:101A9000A9680B439360214B1B6803F00703A34223
:101AA0000AD91E4A136823F00703234313601368FF
:101AB00003F00703A3422ED12B6813F0040F06D0C6
:101AC000174A936823F4E063E9680B4393602B683B
:101AD00013F0080F07D0124A936823F46053296962
:101AE00043EAC1039360FFF7DBFB0D4B9B68C3F335
:101AF00003130C4AD35C03F01F03D8400A4B186051
:101B00000A4B1868FFF73AFB70BD012070470120AF
:101B1000FAE70120F8E70120F6E700BF00200240C5
:101B200000100240B8310008080000200400002026
:101B3000014B1868704700BF0800002008B5FFF788
:101B4000F7FF054B9B68C3F30223044AD35C03F001
:101B50001F03D84008BD00BF00100240C831000874
:101B600008B5FFF7E5FF054B9B68C3F3C223044AA2
:101B7000D35C03F01F03D84008BD00BF0010024033
:101B8000C8310008F8B504460F46584BDB6813F01F
:101B9000030F18D0554BDB6803F003030268934230
:101BA00002D001252846F8BD002A00F09D804F4B49
:101BB000DB68C3F3021301334268934201D001256D
:101BC000F0E7002509E00368022B56D0032B5BD019
:101BD000012B41D00125002DE4D1444A136823F0A4
:101BE00080631360FFF70EFB0646404B1B6813F043
:101BF000006F05D0FFF706FB831B022BF5D90325E9
:101C0000002DCFD1002F4DD138490B6923F07843F7
:101C100023F4FE43A068E268D20642EA002213439E
:101C20000B61324A136843F080631360FFF7EAFAEE
:101C300006462E4B1B6813F0006F05D1FFF7E2FA42
:101C4000831B022BF5D90325002DABD1274A13693D
:101C5000A1690B431361A5E7244A126812F0020F31
:101C60001ED02248C26822F073026168013943EA3B
:101C700001131343C3600025ADE71C4A126812F438
:101C8000806FEED10125A6E7184A126812F4003FD2
:101C9000E7D1164A126812F4802FE2D101259AE7A3
:101CA000012598E7012F0FD01048026922F0C06289
:101CB00022F4FE42A16863695B08013B5B0643EACC
:101CC000012313430361ACE70848026922F4C00210
:101CD00022F4FE42A16823695B08013B5B0543EAED
:101CE0000123134303619CE701255BE700100240D9
:101CF0002DE9F04182B00446036813F4006F25D04B
:101D0000C36BB3F5000F06D0B3F5400F12D04BB143
:101D1000012637461CE0AE4AD36843F48033D360D3
:101D2000002708E000210430FFF72CFF074610B120
:101D300006460DE00027A64AD2F8883023F4400377
:101D4000E16B0B43C2F88830002601E000263746DD
:101D5000236813F4003F6BD09D4B9B6D13F0805FA5
:101D60004CD19B4B9A6D42F080529A659B6D03F06B
:101D700080530193019B4FF00108964A136843F486
:101D800080731360FFF73EFA0546924B1B6813F40D
:101D9000807F05D1FFF736FA401B0228F5D90327CB
:101DA000002F40D18A4BD3F8903013F4407315D0F4
:101DB000226D9A4212D0864AD2F8903023F44073B2
:101DC000D2F8901041F48031C2F89010D2F89010FF
:101DD00021F48031C2F89010C2F8903013F0010F56
:101DE0000FD1002F40F0C980794AD2F8903023F407
:101DF0004073216D0B43C2F8903015E04FF000089E
:101E0000BBE7FFF7FFF90546714BD3F8903013F0AD
:101E1000020FE6D1FFF7F6F9401B41F288339842F2
:101E2000F2D90327DDE73E46B8F1000F40F0A78066
:101E3000236813F0010F08D0654AD2F8883023F0E8
:101E40000303216A0B43C2F88830236813F0020FA2
:101E500008D05F4AD2F8883023F00C03616A0B4344
:101E6000C2F88830236813F0200F08D0584AD2F8FF
:101E7000883023F44063A16A0B43C2F8883023689A
:101E800013F4007F08D0524AD2F8883023F440235C
:101E9000616B0B43C2F88830236813F4806F08D05D
:101EA0004B4AD2F8883023F44013A16B0B43C2F89D
:101EB0008830236813F0400F08D0454AD2F88830A4
:101EC00023F44053E16A0B43C2F88830236813F4CB
:101ED000807F08D03E4AD2F8883023F44033216B0B
:101EE0000B43C2F88830236813F4005F0FD0384AE0
:101EF000D2F8883023F04063216C0B43C2F888305D
:101F0000236CB3F1006F40D0B3F1806F42D02368EF
:101F100013F4802F0FD02E4AD2F8883023F040637C
:101F2000616C0B43C2F88830636CB3F1006F39D039
:101F3000B3F1806F3BD0236813F4804F0CD0244A58
:101F4000D2F8883023F04053A16C0B43C2F888309C
:101F5000A36CB3F1805F32D0236813F4004F08D034
:101F60001B4AD2F8883023F08043E16C0B43C2F85F
:101F70008830304602B0BDE8F0813E4654E7144A4E
:101F8000936D23F08053936552E7D36843F4801335
:101F9000D360BCE70121201DFFF7F4FD0028B6D077
:101FA0000646B4E7D36843F48013D360C3E7012146
:101FB000201DFFF7E7FD0028BDD00646BBE7022144
:101FC000201DFFF7DFFD0028C6D00646C4E700BF8E
:101FD0000010024000700040F0B583B000239CE088
:101FE00085685E000324B44025EA0405CC68B4404B
:101FF0002C438460446824EA0C0C4C68C4F300143D
:102000009C4044EA0C044460C6684FEA430C032534
:1020100005FA0CF5EC4326EA050E8D6805FA0CF579
:1020200045EA0E05C5604D68022D01D0122D12D172
:10203000DE08083650F8267003F007054FEA850ED3
:102040000F2505FA0EF527EA05070D6905FA0EF5C5
:102050003D4340F82650056825404C6804F00304D1
:1020600004FA0CF42C4304604C6814F0805F53D0E5
:10207000394C256E45F001052566246E04F00104F7
:102080000194019C9D08AE1C344C54F8267003F05A
:102090000304A6000F24B44027EA0407B0F1904FD0
:1020A00054D02F4CA04253D004F58064A0424BD0B2
:1020B0000724B4403C430235284E46F82540294CBD
:1020C0002568D44325EA02064F6817F4803F01D003
:1020D00042EA0506234D2E606D6804EA05064F6846
:1020E00017F4003F01D042EA05061E4D6E60AD6850
:1020F00004EA05064F6817F4801F01D042EA05067E
:10210000184DAE60ED682C404E6816F4001F01D0EB
:1021100042EA0504134AD46001330A6832FA03F430
:1021200018D04FF0010C0CFA03FC1CEA0202F3D0A9
:102130004C68651E012D7FF653AF112C3FF450AF54
:10214000122C7FF461AF4BE70224B2E70024B0E722
:102150000124AEE703B0F0BD0010024000000140D2
:1021600000040048000401400AB1816170478162A7
:10217000704730B4446C04F01C0C012404FA0CF4D5
:10218000056C6C60046863608368102B05D003687D
:1021900099600368DA6030BC704703689A6003682E
:1021A000D960F8E7002873D010B403460068394AB4
:1021B00090424AD8384A02443849A1FB0212120917
:1021C00092005A64364A1A64022283F82520016874
:1021D00021F4FF4121F070019A68DC6822431C69F8
:1021E00022435C6922439C692243DC6922431C6AC6
:1021F00022430A4302609A68B2F5804F1BD0196CE3
:10220000274A91422CD0264AD2F8A814586C00F0E4
:102210001C0C0F2000FA0CF021EA0001C2F8A814EF
:10222000D2F8A81458685C6C04F01C0C00FA0CF08E
:102230000143C2F8A8140020D863012283F82520A6
:1022400083F824005DF8044B7047164A0244134992
:10225000A1FB0212120992005A64134A1A64B3E7EE
:10226000D2F8A810586C00F01C0C0F2000FA0CF0EB
:1022700021EA0001C2F8A810D2F8A81058685C6CD6
:1022800004F01C0C00FA0CF00143C2F8A810D2E7CD
:102290000120704707040240F8FFFDBFCDCCCCCC35
:1022A00000000240F8FBFDBF0004024038B50446C0
:1022B00090F82400012832D0012084F8240094F8FA
:1022C0002500C0B2012804D0002384F82430022065
:1022D00038BD022084F825000020E06325682868C6
:1022E00020F0010028602046FFF743FF236B5BB11D
:1022F0002268136843F00E0313602268136843F0EA
:10230000010313600020E3E72268136823F004034D
:1023100013602268136843F00A031360EDE702209C
:10232000D6E790F82530DBB2022B06D00423C36336
:10233000002380F82430012070470268136823F0DE
:102340000E0313600268136823F001031360436CEB
:1023500003F01C03016C012202FA03F34B6080F8C6
:102360002520002380F824301846704708B590F8DF
:102370002530DBB2022B03D00423C363012008BD48
:102380000268136823F00E0313600268136823F0D9
:1023900001031360436C03F01C03016C012202FA79
:1023A00003F34B6080F82520002380F82430836BF2
:1023B00013B198470020E2E70020E0E738B5036C4E
:1023C000196804682568436C03F01C0304229A40D2
:1023D0000A4215D015F0040F12D0236813F0200F15
:1023E00003D1236823F004032360436C03F01C0231
:1023F000016C042393404B60036B03B1984738BDD5
:1024000002229A400A421CD015F0020F19D023680C
:1024100013F0200F06D1236823F00A032360012361
:1024200080F82530436C03F01C02016C02239340BA
:102430004B60002380F82430C36A002BDFD098471C
:10244000DDE7082202FA03F30B42D8D015F0080F9B
:10245000D5D0236823F00E032360436C03F01C03E4
:10246000016C012202FA03F34B60C26380F825205D
:10247000002380F82430436B002BC0D09847BEE780
:10248000024B186800F4C060704700BF0070004045
:10249000B0F5007F0FD01F4B1B6803F4C063B3F58A
:1024A000806F34D01B4A136823F4C06343F4806305
:1024B000136000207047174B1B6803F4C063B3F52B
:1024C000007F20D0134A136823F4C06343F40073E1
:1024D0001360114B1B68322202FB03F30F4AA2FB6D
:1024E00003239B0C013300E0013B0A4A526912F4BA
:1024F000806F01D0002BF7D1064B5B6913F4806F1E
:1025000003D100207047002070470320704700204F
:10251000704700BF007000400800002083DE1B43AE
:10252000074AD36823F4E0631B041B0C000200F489
:10253000E060034343F0BF6343F40033D36070476C
:1025400000ED00E000B5194BDB68C3F30223C3F1D3
:10255000070CBCF1040F28BF4FF0040C03F1040E6C
:10256000BEF1060F18D9033B4FF0FF3E0EFA0CFCEC
:1025700021EA0C0199400EFA03F322EA03031943FE
:1025800000280BDB0901C9B200F1604000F5614091
:1025900080F800135DF804FB0023E5E700F00F006E
:1025A0000901C9B2024B1954F4E700BF00ED00E085
:1025B00014ED00E0002807DB00F01F0240090123B2
:1025C0009340024A42F82030704700BF00E100E02B
:1025D0000138B0F1807F0BD24FF0E0235861054AFB
:1025E000F02182F823100020986107221A617047B9
:1025F0000120704700ED00E000286AD010B50446C5
:10260000436A33B94368B3F5827F05D00023C361C1
:1026100002E00023036143610023A36294F85D306C
:10262000002B4DD0022384F85D302268136823F01C
:1026300040031360E368B3F5E06F47D90022B3F5B8
:10264000706F04D0B3F5E06F01D00023A36263681C
:1026500003F48273A16801F404410B43216901F082
:1026600002010B43616901F001010B43A16901F40F
:1026700000710B43E16901F038010B43216A01F05D
:1026800080010B43A16A01F4005120680B430360F1
:10269000638B03F00403616A01F010010B43616B6B
:1026A00001F008010B43E16801F470610B432168FC
:1026B00013434B6000202066012384F85D3010BD79
:1026C00084F85C302046FEF77FFBABE74FF4805286
:1026D000B5E7012070470268136823F0C003136058
:1026E0002023836770470268136823F49073136094
:1026F0000268936823F001039360036E012B05D0F9
:102700002023C3670023036643667047026813688B
:1027100023F010031360F3E7704708B501680A68F7
:1027200022F040020A602022826700228266FFF7C0
:10273000F3FF08BD70477047704738B5846AA26FD1
:10274000E56F23689B6813F0800F01D0212A10D019
:1027500023689B6813F0400F01D0222D10D0D4F8CD
:10276000803043F01003C4F880302046FFF7E4FFC8
:1027700038BD0023A4F852302046FFF7ACFFE7E74E
:102780000023A4F85A302046FFF7ADFFE7E708B56D
:10279000806A0023A0F85A30A0F85230FFF7CCFF2F
:1027A00008BD704770B504460168CB6908688D683C
:1027B00040F60F021A4005D113F0200F02D010F09E
:1027C000200F20D12AB115F0010222D1944E3042BF
:1027D0001FD1226E012A00F0A28013F4801F03D0C3
:1027E00015F4800F40F00A8113F0800F03D010F031
:1027F000800F40F00A8113F0400F03D010F0400F1B
:1028000040F00A8170BD636E002BFBD020469847D4
:10281000F8E713F0010F09D010F4807F06D00125EE
:102820000D62D4F880102943C4F8801013F0020F11
:1028300009D042B1216802250D62D4F8801041F020
:102840000401C4F8801013F0040F09D042B12168CC
:1028500004250D62D4F8801041F00201C4F8801004
:1028600013F0080F0BD010F0200F00D13AB12268FE
:1028700008211162D4F880200A43C4F8802013F4A0
:10288000006F0CD010F0806F09D022684FF4006107
:102890001162D4F8802042F02002C4F88020D4F8DD
:1028A0008020002AAED013F0200F06D010F0200FA9
:1028B00003D0636E0BB120469847D4F8802023687C
:1028C0009B6813F0400F02D112F0280F20D0204651
:1028D000FFF709FF23689A6812F0400F14D09A6836
:1028E00022F040029A60236F53B14E4A9A63206FE0
:1028F000FFF73CFD002885D0206F836B984781E768
:102900002046FFF719FF7DE72046FFF715FF79E71F
:102910002046FFF711FF0023C4F8803072E713F060
:10292000100F3FF45AAF10F0100F3FF456AF1023C2
:102930000B622268936813F0400F38D0216F0B6848
:102940005B689BB2002B3FF45DAFB4F8580098422F
:102950007FF658AFA4F85A300B681B6813F0200FAD
:102960000AD0B4F85810B4F85A309BB2C91A89B2D8
:102970002046FFF716FF45E7136823F480731360C2
:102980002268936823F0010393602268936823F020
:10299000400393602023E3670023236622681368C3
:1029A00023F010031360206FFFF7BBFCD9E7B4F8E6
:1029B0005810B4F85A309BB2C91A89B2B4F85A30D8
:1029C0009BB2002B3FF41EAF00293FF41BAF1368EE
:1029D00023F4907313602268936823F001039360DB
:1029E0002023E3670023236663662268136823F0CD
:1029F000100313602046FFF7D4FE03E74FF4801363
:102A00000B62204600F00AFBFCE6A36E002B3FF4AD
:102A1000F9AE20469847F5E62046FFF77EFEF1E640
:102A2000200100048F27000808B5806A036E012B7F
:102A300002D0FFF780FE08BDB0F858104908FFF734
:102A4000B0FEF8E708B50346806A1B681B6813F000
:102A5000200F16D10023A0F85A300268136823F41F
:102A6000807313600268936823F001039360026827
:102A7000936823F0400393602023C367036E012B08
:102A800005D0036E012B08D0FFF754FE08BD026885
:102A9000136823F010031360F3E7B0F85810FFF742
:102AA00080FEF3E710B504460168836802691343AA
:102AB00042691343C269134308688C4A02401343B6
:102AC0000B602268536823F44053E1680B43536062
:102AD000A1692268864B9A4201D0236A1943936800
:102AE00023F430630B4393602368824A93421CD0E3
:102AF000814A93422DD07E4A934243D010227C4992
:102B00008B4260D0E069B0F5004F00F08C80082A5D
:102B100000F2E580DFE812F0B400CA00B200E30082
:102B2000CD00E300E300E300D00002F55842D2F804
:102B3000882002F00302032A09D8DFE802F0020429
:102B400038060122DBE70422D9E70822D7E7102262
:102B5000D5E702F5E632D2F8882002F00C020C2A02
:102B60000ED8DFE802F0070D0D0D090D0D0D260D35
:102B70000D0D0B000022C2E70422C0E70822BEE7C9
:102B80001022BCE702F5C832D2F8882002F4406275
:102B9000B2F5006F0FD005D87AB1B2F5806F0ED1C3
:102BA0000422ACE7B2F5406F0BD10822A7E702225E
:102BB000A5E70222A3E70222A1E700229FE7102255
:102BC0009DE710229BE7082A79D8DFE802F0087811
:102BD0002A782778787805004FF4004003E0FEF764
:102BE000ADFF00286DD0626802EB420383426AD8D1
:102BF000B0EB023F69D8010E00025308C0184FF035
:102C0000000341F10001FDF7E3FAA0F540723B4BF0
:102C10009A425CD82368D860002043E0FEF740FB6E
:102C2000DFE73748DFE7082A53D8DFE802F007215B
:102C30000552245252520B00314803E0FEF77EFF4A
:102C4000002848D06268530803EB4000B0FBF2F064
:102C500080B2A0F110024FF6EF739A423DD820F0F7
:102C60000F03C0F3420018432368D860002019E026
:102C7000FEF776FFE4E7FEF713FBE1E7204802E00A
:102C8000FEF75CFF68B3636800EB5300B0FBF3F042
:102C900080B2A0F110024FF6EF739A4223D8236856
:102CA000D860002000236366A36610BDFEF758FFBE
:102CB000E8E7FEF7F5FAE5E74FF40040E3E7012027
:102CC000F0E70020EEE70120ECE70120EAE7012031
:102CD000E8E70120E6E70020E4E70120E2E7012041
:102CE000E0E70020DEE70120DCE700BFF369FFEF4B
:102CF000008000400038014000440040FFFC0F000D
:102D00000024F400436A13F0010F06D002685368F0
:102D100023F40033816A0B435360436A13F0020FBC
:102D200006D00268536823F48033C16A0B435360B2
:102D3000436A13F0040F06D00268536823F480231B
:102D4000016B0B435360436A13F0080F06D002680F
:102D5000536823F40043416B0B435360436A13F001
:102D6000100F06D00268936823F48053816B0B43E5
:102D70009360436A13F0200F06D00268936823F42F
:102D80000053C16B0B439360436A13F0400F0AD0AA
:102D90000268536823F48013016C0B435360036C87
:102DA000B3F5801F0BD0436A13F0800F06D0026882
:102DB000536823F40023816C0B435360704702680F
:102DC000536823F4C003416C0B435360EBE72DE9D8
:102DD000F84305460F4616469946DDF820802C68D4
:102DE000E46937EA04030CBF4FF0010C4FF0000C0C
:102DF000B4453DD1B8F1FF3FF1D0FEF703FAA0EBA7
:102E00000900404522D8B8F1000F1FD02B681A687E
:102E100012F0040FE3D0DA6912F4006FDFD04FF440
:102E200000621A622A68136823F4D07313602A6858
:102E3000936823F0010393602023AB67EB67C5F829
:102E40008030002385F87430032012E02A6813686C
:102E500023F4D07313602A68936823F0010393600E
:102E60002023AB67EB67002385F87430032000E074
:102E70000020BDE8F88330B583B004460023C0F8D5
:102E80008030FEF7BFF905462268126812F0080F7D
:102E90000DD123681B6813F0040F16D12023A367FC
:102EA000E3670020206684F8740003B030BD6FF043
:102EB0007E430093034600224FF400112046FFF7A3
:102EC00086FF0028E5D00320EFE76FF07E430093F4
:102ED0002B4600224FF480012046FFF778FF0028A0
:102EE000DCD00320E1E768B310B50446836F03B379
:102EF0002423A3672268136823F00103136020468C
:102F0000FFF7D0FD012813D0636ABBB9226853686C
:102F100023F4904353602268936823F02A0393605C
:102F20002268136843F0010313602046FFF7A3FFF4
:102F300010BD80F87430FDF7ADFFD9E72046FFF7EC
:102F4000E1FEE3E70120704710B5044613464165F2
:102F5000A0F858200022C0F880202222C267026F09
:102F60008AB11749D162026F16491163026F16497F
:102F70005163026F002191630168426D2431006F3B
:102F8000FFF794F990B9002084F874002268136860
:102F900043F4807313602268936843F001039360E5
:102FA0002268936843F04003936010BD1023C4F877
:102FB0008030002384F874302023A3670120F4E7D5
:102FC000452A0008292A00083B270008C36F202B48
:102FD0001AD1D9B1E2B190F87430012B1AD010B5E2
:102FE000012380F874300023036603680A4CA3426F
:102FF00007D05C6814F4000F03D01C6844F08064B0
:103000001C60FFF7A1FF10BD022070470120704730
:103010000120704702207047008000407047000088
:103020000F49D1F8883043F47003C1F888300D4B54
:103030001A6842F001021A60002098601A6822F0B3
:10304000A85222F410221A604FF48052DA601A68F3
:1030500022F480221A6098614FF000638B60704701
:1030600000ED00E00010024000B583B00E4B9A6CFA
:1030700042F001029A649B6C03F001030193019BEF
:10308000002211460E20FFF75DFA0E20FFF792FA9C
:10309000002211460F20FFF755FA0F20FFF78AFA9A
:1030A00003B05DF804FB00BF00100240DFF834D02D
:1030B000FFF7B6FF002103E00B4B5B584350043190
:1030C0000A480B4B42189A42F6D30A4A02E0002300
:1030D00042F8043B084B9A42F9D300F011F8FDF78F
:1030E00047FAFEE700000120183200080000002027
:1030F0001000002010000020AC080020FEE70000B7
:1031000070B50D4D0D4C641BA4100026A64209D1CC
:103110000B4D0C4C00F02EF8641BA4100026A642A8
:1031200005D170BD55F8043B98470136EEE755F8D8
:10313000043B98470136F2E70832000808320008DD
:10314000083200080C3200080A44914200F1FF33B3
:1031500000D1704710B511F8014B03F8014F9142AF
:10316000F9D110BD02440346934200D1704703F8E1
:10317000011BF9E7F8B500BFF8BC08BC9E467047D4
:10318000F8B500BFF8BC08BC9E46704700000000C0
:103190005465726D696E616C0000000052545400F9
:1031A00053454747455200003031323334353637C6
:1031B0003839414243444546000000000000000009
:1031C00001020304060708090000000001020304CD
:1031D000A0860100400D0300801A060000350C0097
:1031E00040420F0080841E0000093D0000127A005A
:1031F0000024F40000366E010048E801006CDC0297
:0832000000D0FF7F0100000077
:08320800B50100080000000000
:0832100091010008000000001C
:10321800010000001000000000093D00000000004F
:04000005080030AD12
:00000001FF
